:100000000C9462000C948A000C948A000C948A0070
:100010000C946C040C948A000C948A000C948A0052
:100020000C948A000C948A000C948A000C948A0028
:100030000C948A000C948A000C948A000C948A0018
:100040000C94CA030C948A000C943A040C94140483
:100050000C948A000C948A000C948A000C948A00F8
:100060000C948A000C948A000000000024002700F1
:100070002A0000000000250028002B0000000000DE
:1000800023002600290004040404040404040202DA
:100090000202020203030303030301020408102007
:1000A0004080010204081020010204081020000012
:1000B0000008000201000003040700000000000027
:1000C0000000BC0711241FBECFEFD8E0DEBFCDBFBC
:1000D00011E0A0E0B1E0E4EBF0E102C005900D9288
:1000E000AC38B107D9F723E0ACE8B1E001C01D920C
:1000F000AA30B207E1F710E0C2E6D0E004C02197D1
:10010000FE010E943E08C136D107C9F70E94AF0523
:100110000C9458080C940000833081F028F481304E
:1001200099F08230A1F008958730A9F08830B9F0B5
:100130008430D1F4809180008F7D03C08091800055
:100140008F7780938000089584B58F7702C084B53F
:100150008F7D84BD08958091B0008F7703C080911A
:10016000B0008F7D8093B0000895CF93DF93282F48
:1001700030E0F901E255FF4F8491F901E656FF4F57
:10018000D491F901EA57FF4FC491CC2391F081112A
:100190000E948C00EC2FF0E0EE0FFF1FE458FF4FA1
:1001A000A591B491EC91ED2381E090E021F480E001
:1001B00002C080E090E0DF91CF9108951F93CF932C
:1001C000DF93282F30E0F901E255FF4F8491F901C8
:1001D000E656FF4FD491F901EA57FF4FC491CC2363
:1001E000C1F0162F81110E948C00EC2FF0E0EE0F71
:1001F000FF1FEE58FF4FA591B4919FB7F8941111CE
:1002000004C08C91D095D82302C0EC91DE2BDC93F6
:100210009FBFDF91CF911F910895CF93DF9390E01F
:10022000FC01E656FF4F2491FC01EA57FF4F8491F1
:10023000882361F190E0880F991FFC01E859FF4F76
:10024000C591D491FC01EE58FF4FA591B491611175
:1002500009C09FB7F8948881209582238883EC9108
:100260002E230BC0623061F49FB7F8948881322F3F
:10027000309583238883EC912E2B2C939FBF06C04F
:100280008FB7F894E8812E2B28838FBFDF91CF9111
:1002900008952FB7F8946091690270916A02809175
:1002A0006B0290916C022FBF0895CF92DF92EF9274
:1002B000FF920F931F93CF93DF936C017A018B0111
:1002C000C0E0D0E0CE15DF0581F0D8016D918D0141
:1002D000D601ED91FC910190F081E02DC6010995C8
:1002E000892B11F02196EECF7E01C701DF91CF91CE
:1002F0001F910F91FF90EF90DF90CF900895089598
:1003000080E090E00895FC01538D448D252F30E06E
:10031000842F90E0821B930B541710F0CF96089512
:1003200001970895FC01918D828D981761F0828D5F
:10033000DF01A80FB11D5D968C91928D9F5F9F7319
:10034000928F90E008958FEF9FEF0895FC01918DBB
:10035000828D981731F0828DE80FF11D858D90E028
:1003600008958FEF9FEF0895FC01918D228D892FC5
:1003700090E0805C9F4F821B91098F7399270895AD
:100380008DE692E00E94B40121E0892B09F420E07F
:10039000822F0895FC01848DDF01A80FB11DA35A9F
:1003A000BF4F2C91848D90E001968F739927848F95
:1003B000A689B7892C93A089B1898C9183708064B8
:1003C0008C93938D848D981306C00288F389E02D59
:1003D00080818F7D80830895EF92FF920F931F930A
:1003E000CF93DF93EC0181E0888F9B8D8C8D9813E8
:1003F00005C0E889F989808185FD26C0F62E0B8D20
:1004000010E00F5F1F4F0F731127E02E8C8DE81245
:100410000CC00FB607FCFACFE889F989808185FF07
:10042000F5CFCE010E94CA01F1CF8B8DFE01E80FFE
:10043000F11DE35AFF4FF0829FB7F8940B8FEA89C2
:10044000FB89808180620AC09FB7F894EE89FF899A
:100450006083E889F98980818370806480839FBF8D
:1004600081E090E0DF91CF911F910F91FF90EF908D
:100470000895CF93DF93EC01888D8823C9F0EA8932
:10048000FB89808185FD05C0A889B9898C9186FD8D
:100490000FC00FB607FCF5CF808185FFF2CFA8898A
:1004A000B9898C9185FFEDCFCE010E94CA01E7CFBB
:1004B000DF91CF91089580E090E0892B29F00E9490
:1004C000C00181110C940000089581110AC060E000
:1004D0008DE00E94DE0060E08AE00E94DE0060E0C5
:1004E00025C0813059F460E08AE00E94DE0060E0BF
:1004F00087E00E94DE0061E08DE019C0823059F48F
:1005000060E08DE00E94DE0060E087E00E94DE0097
:1005100061E08AE00CC0833061F460E08DE00E940D
:10052000DE0060E08AE00E94DE0061E087E00C947B
:10053000DE00089510923602809136028431F0F484
:10054000E091360284E0E89FF0011124E452FE4F6E
:100550001082118212821382E091360284E0E89FB9
:10056000F0011124E457FE4F10821182128213828F
:10057000809136028F5F80933602DECF0895009718
:1005800069F0FC0101900020E9F73197AF01481BA9
:10059000590BBC018DE692E00C94550180E090E08F
:1005A00008958F929F92AF92BF920F931F93CF9314
:1005B000DF93CDB7DEB7A1970FB6F894DEBF0FBEBD
:1005C000CDBF19A2423008F44AE08E010F5D1F4FE3
:1005D000842E912CA12CB12CA50194010E94FD0721
:1005E000E62FB901CA0101501109EA3014F4E05DA7
:1005F00001C0E95CD801EC93232B242B252B61F758
:10060000C8010E94BF02A1960FB6F894DEBF0FBECC
:10061000CDBFDF91CF911F910F91BF90AF909F9071
:100620008F900895CF93DF930E94BF02EC0183E186
:1006300091E00E94BF028C0F9D1FDF91CF91089522
:100640000E945308CF92DF92EF92FF92CF93909146
:100650005D029230C1F5C82F8FE00E94B50001976E
:1006600091F5C0935D028C2F0E9465020E944901A2
:100670006B017C018FE00E94B500019711F4A895F1
:10068000F9CF0E9449019B01AC012C193D094E098B
:100690005F0969017A0186E191E00E94BF024AE0A8
:1006A000C701B6010E94D1028FE391E00E94BF0210
:1006B00060915D0270E080E090E04AE00E94D1022B
:1006C0008FE491E002C081E591E0CF91FF90EF903F
:1006D000DF90CF900C94120384E591E00E94BF025A
:1006E00060915C0270E080E090E04AE00E94D102FC
:1006F0008FE591E00E94BF02609154027091550213
:1007000080915602909157024AE00E94D1028AE6F7
:1007100091E00E94BF0220914C0230914D02409125
:100720004E0250914F02A0E1B7E20E941F082091B3
:1007300040023091410240914202509143020E9496
:10074000FD07CA01B9014AE00E94D10284E791E0A5
:100750000E94BF0260915D0270E080E090E04AE09C
:100760000E94D10280E891E00E94BF020E944901EC
:100770004AE00E94D1028FE491E00E9412030E949D
:10078000490160933C0270933D0280933E02909336
:100790003F0208951F920F920FB60F9211242F93CC
:1007A0003F938F939F93AF93BF93809169029091F2
:1007B0006A02A0916B02B0916C023091680223E052
:1007C000230F2D3720F40196A11DB11D05C026E889
:1007D000230F0296A11DB11D209368028093690228
:1007E00090936A02A0936B02B0936C0280916402B2
:1007F00090916502A0916602B09167020196A11DD9
:10080000B11D8093640290936502A0936602B09339
:100810006702BF91AF919F918F913F912F910F9060
:100820000FBE0F901F9018951F920F920FB60F9248
:1008300011242F933F934F935F936F937F938F93E5
:100840009F93AF93BF93EF93FF938DE692E00E9447
:10085000CA01FF91EF91BF91AF919F918F917F91CD
:100860006F915F914F913F912F910F900FBE0F901D
:100870001F9018951F920F920FB60F9211242F936D
:100880008F939F93EF93FF93E0917D02F0917E020F
:100890008081E0918302F091840282FD12C09081F8
:1008A000809186028F5F8F7320918702821751F0AB
:1008B000E0918602F0E0E359FD4F958F8093860228
:1008C00001C08081FF91EF919F918F912F910F90A7
:1008D0000FBE0F901F9018951F920F920FB60F9298
:1008E0001124CF92DF92EF92FF920F931F932F93D9
:1008F0003F934F935F936F937F938F939F93AF93A8
:10090000BF93CF93EF93FF939FB7F894C090640287
:10091000D0906502E0906602F090670286B5A89BD1
:1009200007C08F3F29F02FEFC21AD20AE20AF20A5B
:100930009FBFFE2CED2CDC2CCC24C80ED11CE11C5E
:10094000F11C32E0CC0CDD1CEE1CFF1C3A95D1F7FB
:100950000E944901609338027093390280933A02F1
:1009600090933B028EE00E94B500C82F80912C022C
:10097000C81709F4DCC0C13009F04DC0E09136025F
:1009800034E0E39FF0011124E452FE4F8081918115
:10099000A281B381A7019601281B390B4A0B5B0B7F
:1009A00060E07DE281E391E00E94FD072093580220
:1009B0003093590240935A0250935B02E091360201
:1009C00044E0E49FF0011124E452FE4F80819181C4
:1009D000A281B381A7019601281B390B4A0B5B0B3F
:1009E00020934402309345024093460250934702BD
:1009F00080913502811102C0C0933502E091360228
:100A000034E0E39FF0011124E452FE4FC082D18212
:100A1000E282F3828AC080913502882309F485C07E
:100A2000E091360244E0E49FF0011124E452FE4FCD
:100A30004081518162817381809150029091510275
:100A4000A0915202B0915302841B950BA60BB70BD9
:100A50008C0D9D1DAE1DBF1D8093500290935102C1
:100A6000A0935202B093530280913702882309F475
:100A70003FC08091360290E00196E4E1F0E0BF01D2
:100A80000E94E907DC01AA0FBB1FAA0FBB1FA457D6
:100A9000BE4F0D911D912D913C918091360290E0B9
:100AA0000196BF010E94E907FC01EE0FFF1FEE0F48
:100AB000FF1FE452FE4F408151816281738180911A
:100AC000500290915102A0915202B0915302041B26
:100AD000150B260B370B801B910BA20BB30B8093CE
:100AE000500290935102A0935202B093530207C058
:100AF00080913602833119F481E080933702E091CE
:100B0000360254E0E59FF0011124E457FE4FC08205
:100B1000D182E282F3828091360290E0019664E114
:100B200070E00E94E90780933602C0932C02FF9187
:100B3000EF91CF91BF91AF919F918F917F916F91E5
:100B40005F914F913F912F911F910F91FF90EF90E7
:100B5000DF90CF900F900FBE0F901F901895789454
:100B600084B5826084BD84B5816084BD85B58260B2
:100B700085BD85B5816085BD80916E008160809363
:100B80006E001092810080918100826080938100CC
:100B900080918100816080938100809180008160DC
:100BA000809380008091B10084608093B100809137
:100BB000B00081608093B00080917A00846080935F
:100BC0007A0080917A00826080937A0080917A0026
:100BD000816080937A0080917A00806880937A00A7
:100BE0001092C100F8940E949A0261E08DE00E9488
:100BF0000D0161E08AE00E940D0161E087E00E9442
:100C00000D0160E08EE00E940D0160E088E00E942E
:100C10000D0160E08FE00E940D0160E08DE00E9418
:100C2000DE0060E08AE00E94DE0060E087E00E9473
:100C3000DE00E0917D02F0917E0282E08083E0910F
:100C40007902F0917A021082E0917B02F0917C02AD
:100C500080E1808310928502E0918102F09182020E
:100C600086E08083E0917F02F09180028081806144
:100C70008083E0917F02F091800280818860808390
:100C8000E0917F02F0918002808180688083E09112
:100C90007F02F091800280818F7D808380916C0043
:100CA000816080936C00D99A809168008260809303
:100CB000680078949DE088E10FB6F894A895809339
:100CC00060000FBE9093600011E002E083E0F82E18
:100CD000A89588E00E94B500C82F809363028130F8
:100CE00079F580916202813059F10E94490180902A
:100CF0005E0290905F02A0906002B0906102DC0101
:100D0000CB0188199909AA09BB098D329140A10527
:100D1000B105B0F00E94490160935E0270935F02DA
:100D2000809360029093610280915D028F5F8430B6
:100D300008F401C110925D0280915D020E9465027B
:100D4000C09362028FE00E94B50080935C02F89429
:100D50008091580290915902A0915A02B0915B0281
:100D60008093540290935502A0935602B093570279
:100D70008091500290915102A0915202B091530281
:100D800080934C0290934D02A0934E02B0934F0279
:100D90008091480290914902A0914A02B0914B0281
:100DA0008091440290914502A0914602B091470281
:100DB0008093400290934102A0934202B093430279
:100DC0007894809100018823B1F00E9449018090BD
:100DD0003C0290903D02A0903E02B0903F02DC01A8
:100DE000CB0188199909AA09BB09893C9105A1057C
:100DF000B10508F0A3C00E9449018090380290908C
:100E00003902A0903A02B0903B02DC01CB01881974
:100E10009909AA09BB0985369105A105B10568F0B4
:100E20008091580290915902A0915A02B0915B02B0
:100E3000892B8A2B8B2B09F084C080912D0288236B
:100E400009F456C080912E02833531F08435E9F1E2
:100E5000873409F049C032C080912F02833531F0C8
:100E60008435F9F0823509F03FC027C08091310206
:100E7000823469F028F4813479F410925D020CC058
:100E8000833441F0843441F4F0925D0205C0109344
:100E90005D0202C000935D0280915D020E946502C6
:100EA00023C080913102803329F08133E9F410931B
:100EB00000011AC01092000117C0FFCF80912F02CD
:100EC000833591F40E946C030FC080912F0282350C
:100ED00059F480913102813421F0823429F481E087
:100EE00001C080E00E94220310922D021092340271
:100EF0008DE692E00E94B40118161906CCF4D09148
:100F00003402C1E0CD0FC09334028DE692E00E941E
:100F10009201ED2FF0E0E25DFD4F8083EC2FF0E0D9
:100F2000E35DFD4F80818A3019F710932D02E0CFE9
:100F30000E945B02CDCE80935D02FECE0E946C03C8
:100F40005ACFF894109258021092590210925A02F5
:100F500010925B02109237021092360210925002E9
:100F600010925102109252021092530210923502C6
:100F70000E949A02789461CFEDE6F2E01382128229
:100F800088EE93E0A0E0B0E084839583A683B783E6
:100F900085E091E09183808385EC90E0958784875C
:100FA00084EC90E09787868780EC90E0918B808B33
:100FB00081EC90E0938B828B82EC90E0958B848B1C
:100FC00086EC90E0978B868B118E128E138E148E8A
:100FD000089597FB072E16F4009407D077FD09D0EB
:100FE0000E942A0807FC05D03EF4909581959F4FFA
:100FF0000895709561957F4F0895A1E21A2EAA1B5E
:10100000BB1BFD010DC0AA1FBB1FEE1FFF1FA217B8
:10101000B307E407F50720F0A21BB30BE40BF50BB5
:10102000661F771F881F991F1A9469F7609570953E
:10103000809590959B01AC01BD01CF0108950E9460
:101040004408A59F900DB49F900DA49F800D911D05
:1010500011240895AA1BBB1B51E107C0AA1FBB1F87
:10106000A617B70710F0A61BB70B881F991F5A9534
:10107000A9F780959095BC01CD010895EE0FFF1F53
:101080000590F491E02D0994A29FB001B39FC00197
:10109000A39F700D811D1124911DB29F700D811DA4
:1010A0001124911D089581E090E0F8940C94580863
:0410B000F894FFCFE2
:1010B4000100000000EC01550183013902B40192E2
:1010C40001A6010D0A007B2274797065223A202260
:1010D40072656C61795F72656C656173655F746577
:1010E4007374222C202264656C6179223A20002CCE
:1010F40020226E65775F7374617465223A20007DE7
:10110400004E4B007B2272656C6179223A20002CE0
:10111400202266726571223A20002C202250574DFD
:10112400223A20002C20227374617465223A200034
:0C1134002C202274696D65223A20000016
:107E0000112484B714BE81FFF0D085E080938100F7
:107E100082E08093C00088E18093C10086E0809377
:107E2000C20080E18093C4008EE0C9D0259A86E02C
:107E300020E33CEF91E0309385002093840096BBD3
:107E4000B09BFECF1D9AA8958150A9F7CC24DD24C4
:107E500088248394B5E0AB2EA1E19A2EF3E0BF2EE7
:107E6000A2D0813461F49FD0082FAFD0023811F036
:107E7000013811F484E001C083E08DD089C08234E0
:107E800011F484E103C0853419F485E0A6D080C0E4
:107E9000853579F488D0E82EFF2485D0082F10E0AE
:107EA000102F00270E291F29000F111F8ED06801E7
:107EB0006FC0863521F484E090D080E0DECF843638
:107EC00009F040C070D06FD0082F6DD080E0C81688
:107ED00080E7D80618F4F601B7BEE895C0E0D1E017
:107EE00062D089930C17E1F7F0E0CF16F0E7DF06D8
:107EF00018F0F601B7BEE89568D007B600FCFDCFD4
:107F0000A601A0E0B1E02C9130E011968C91119780
:107F100090E0982F8827822B932B1296FA010C0160
:107F200087BEE89511244E5F5F4FF1E0A038BF0790
:107F300051F7F601A7BEE89507B600FCFDCF97BE46
:107F4000E89526C08437B1F42ED02DD0F82E2BD052
:107F50003CD0F601EF2C8F010F5F1F4F84911BD097
:107F6000EA94F801C1F70894C11CD11CFA94CF0C13
:107F7000D11C0EC0853739F428D08EE10CD085E9AC
:107F80000AD08FE07ACF813511F488E018D01DD067
:107F900080E101D065CF982F8091C00085FFFCCF94
:107FA0009093C60008958091C00087FFFCCF809118
:107FB000C00084FD01C0A8958091C6000895E0E648
:107FC000F0E098E1908380830895EDDF803219F02E
:107FD00088E0F5DFFFCF84E1DECF1F93182FE3DFCA
:107FE0001150E9F7F2DF1F91089580E0E8DFEE27F6
:047FF000FF270994CA
:027FFE00040479
:0400000300007E007B
:00000001FF
