:100000000C944F000C94F4080C94CD080C948300CD
:100010000C9483000C9483000C9483000C94830054
:100020000C9483000C9483000C9483000C94830044
:100030000C9483000C9483000C9483000C94830034
:100040000C94DB0E0C9483000C9441090C941B0956
:100050000C9483000C9483000C9483000C94830014
:100060000C9473090C948300D203DC03DF03E903CF
:100070001E061E061E061E061E061E061E061E0660
:100080001E061E0603041E060D041E061704443534
:100090002E322E3000342E302E3100002C1A112436
:1000A0001FBECFEFD8E0DEBFCDBF14BE0FB6F894B1
:1000B000A895809160008861809360001092600034
:1000C0000FBE11E0A0E0B1E0E8ECFCE302C0059057
:1000D0000D92AA39B107D9F724E0AAE9B1E001C02D
:1000E0001D92A032B207E1F710E0CFE4D0E004C0E7
:1000F0002197FE010E94391BCE34D107C9F70E9417
:10010000250F0C94621E0C9400003FB7F894809168
:10011000C3019091C401A091C501B091C60126B55B
:10012000A89B05C02F3F19F00196A11DB11D3FBF2F
:10013000BA2FA92F982F8827820F911DA11DB11DBD
:10014000BC01CD0142E0660F771F881F991F4A95B9
:10015000D1F70895811103C087E491E002C084E4DF
:1001600091E09F938F931F9284E28F938AE491E0B2
:100170009F938F938FE792E09F938F930E94781BBA
:100180008DB79EB708960FB6F8949EBF0FBE8DBF71
:1001900080915803882371F06FE471E08FE792E05B
:1001A0000E946D1B60915603709157038FE792E098
:1001B0000E946D1B20916F032223E1F0EFE7F2E034
:1001C00001900020E9F71F922F931F922AE32F93AB
:1001D00021E531E03F932F93CF0101979F938F93B8
:1001E0000E94781B8DB79EB708960FB6F8949EBFF5
:1001F0000FBE8DBF0E94F40C6FE772E084E593E0C0
:100200000E94A40880916E03882329F06AE084E5A7
:1002100093E00C940B0808959C01265031092E326E
:10022000310538F445E8489F9001499F300D11246D
:1002300014C09C01245331092D313105D8F4092E05
:10024000000CAA0BBB0B80569F4FAF4FBF4F9C01BA
:1002500085E0220F331F8A95E1F730938B002093BE
:100260008A0081E090E0909389038093880380E086
:1002700090E0089581E090E008958F929F92AF9270
:10028000BF92CF92DF92EF92FF926B017C010E94AE
:1002900085004B015C01C114D104E104F104F1F0CB
:1002A0000E948500DC01CB0188199909AA09BB09C4
:1002B000883E9340A105B10570F321E0C21AD10830
:1002C000E108F10888EE880E83E0981EA11CB11C9D
:1002D000C114D104E104F10419F7DDCFFF90EF90D0
:1002E000DF90CF90BF90AF909F908F9008952FB7E1
:1002F000F8946091BF017091C0018091C10190910B
:10030000C2012FBF08951F93CF93DF93162F209123
:10031000BB033091BC03F901E170FF2720FD02C04F
:1003200090E101C090E5811107C01092D603C0E0B2
:10033000D0E04423B1F036C0863038F0981758F03A
:100340008093D603C0E0D0E047C086E08093D60318
:10035000C1E0D0E041C09093D603C2E0D0E04111AB
:100360000FC06091D603EF2B11F421E001C022E011
:1003700081E090E0213011F480E090E00E94DC1AEE
:100380008091D603882371F02091880330918903EE
:100390002130310519F022303105C1F090E00E9482
:1003A0000C0114C08091880390918903029771F029
:1003B0000E9477016093DF037093E0038093E10371
:1003C0009093E20380E090E00E94200C112349F01A
:1003D00081E00E94AD0C05C0442319F28091D60340
:1003E000D3CFCE01DF91CF911F910895CF93C62F28
:1003F0002091BB033091BC03823011F4216001C015
:100400002E7F3093BC032093BB038091BB0390915C
:10041000BC030E94990B0E94310D9AE0E4E0F1E0E8
:10042000AFEBB3E001900D929A95E1F741E060E007
:100430000E948301CC2321F081E0CF910C94AD0C7C
:10044000CF9108952F923F924F925F926F927F9239
:100450008F929F92AF92BF92CF92DF92EF92FF92D4
:100460000F931F93CF93DF9300D01F92CDB7DEB7CA
:1004700087EB92E00E942D074C01892B09F41BC1E8
:10048000A12CB12C21E030E03B832A8311E07724BA
:100490007A949AE6292E91E0392E28E7E22E21E07F
:1004A000F22E35E7C32E31E0D32E49E5442E41E04C
:1004B000542EA814B9040CF035C487EB92E00E94C6
:1004C0000B07082F80916E03882329F0602F84E5A5
:1004D00093E00E940B08E0915603F0915703043219
:1004E00021F4008310935803E2C02081243209F0E4
:1004F000DEC08091580380320CF0D6C031E0380F56
:10050000082E000C990B30935803E80FF91F0D309B
:1005100009F060C01082E0915603F0915703CF01BB
:10052000019690935A038093590310936D030181B0
:1005300084E2682E600E022732963E2F2F2F819183
:10054000882309F449C0803241F590916D039A30B7
:100550007CF010926D03E0915603F09157031082E6
:100560001092580310926F0380E00E94AA009FC06F
:1005700030E2630E0827DF0111971C92A0916D03F2
:1005800081E08A0F80936D03AA0FBB0BAC5ABC4F5E
:100590001696FC93EE931597D0CF8A3229F08E35BC
:1005A00081F482E0898302C091E09983832F922FA6
:1005B000FC011192CF010E94EB0AF981F13039F46C
:1005C00003C0680E0827B9CF6812C3CF05C008134F
:1005D000C0CF02C000836BC010926F0330916D03D7
:1005E00039833230ACF02981E22FEE0FFF0BEE5A47
:1005F000FC4F85819681FC0120812A3349F40196C4
:100600000E94EB0A80936F03F981F150F0936D0320
:1006100010925803E0915903F0915A038081873476
:1006200009F4D5C1833509F04BC08181833409F0C9
:1006300032C130916D033983832F8250823008F0AC
:10064000F8C280915B0390915C030E94C60A862FDA
:100650009091700390FF37C39091D603961708F0DE
:1006600032C381E090E09B838A838091D6031F92FE
:100670008F93FF92EF92809157038F93809156034F
:100680008F930E94781B109358030F900F900F9038
:100690000F900F900F90809158038F3F09F0DBC2AD
:1006A000E0915603F0915703108210925803FFEF28
:1006B000AF1ABF0AFECE21E030E03B832A8332C36B
:1006C000863409F0B1C281818534A9F12CF48033DC
:1006D00069F08434E1F0ADC2823509F4BAC08335E3
:1006E00009F4D6C0863409F0A4C239C080916D03E4
:1006F000823009F0A3C2E0915B03F0915C0390812A
:100700008091A102903309F09EC280649DC28091C5
:10071000C9038F3F09F49DC282E090E00E94200C43
:100720007092C9030E94EF0B81E00E94AD0C81E042
:100730000E949A0A76C28091C9038E5F823008F0C7
:1007400088C28091BD038B7F8093BD037092CA03E2
:100750001092C90380E090E00E94200C62C2809158
:100760006D03833009F060C2E0915D03F0915E0398
:1007700020812053223008F05CC2E0915B03F091AD
:100780005C03E0818E2FEE0F990BAA0BBB0BFC01D3
:10079000E454F109E331F10508F050C2EC5CFF4F7D
:1007A0000C94391B8091BB039091BC03222311F060
:1007B0008D7F46C0826044C010936E0332C2809128
:1007C000BB039091BC03222311F09D7F39C092603E
:1007D00037C08091BB039091BC03222311F0877F27
:1007E0002FC01092B1031092B2031092B303109273
:1007F000B4031092AD031092AE031092AF031092A7
:10080000B00388601DC08091BB039091BC0322237C
:1008100011F08F7E15C0806113C08091BB03909151
:10082000BC03222311F09B7F0BC0946009C0809110
:10083000BB039091BC03222311F08B7F01C0846025
:100840009093BC038093BB038091BB039091BC0346
:10085000BBC080E090E00E94200C8091BD0386FF29
:1008600006C068EB7BE080E090E00E94120B9EE007
:1008700088E10FB6F894A895809360000FBE90931E
:1008800060006CED75E080E090E00E943D01C9C120
:100890000E94150DC6C1843444F4833309F18134B8
:1008A00059F1823309F0C0C10AC08B3409F452C037
:1008B0008C3409F464C0883409F0B6C13FC080911B
:1008C0006D03823009F0B5C1E0915B03F0915C03E8
:1008D00090818091BD03913309F0E6C18061E5C14B
:1008E00080916D03823009F0A9C18091C9038250C3
:1008F000823008F0A3C1B8C180916D03833009F044
:1009000093C180915B0390915C030E94C60A70932F
:100910000B0460930A0489E090E00E94F21A80912F
:100920005D0390915E030E94C60A70930904609370
:1009300008048BE090E00E94F21A73C180916D036D
:10094000823009F07BC18091C9038250823008F067
:1009500070C1C2C180915B0390915C030E94C60A82
:10096000AB01BC0140931504509316046093170427
:10097000709318048DE090E00E94EA1A52C18091B1
:100980006D03823009F050C1E0915B03F0915C038C
:10099000808181330CF44DC183334CF0813409F0F4
:1009A00048C18091BB039091BC038F7D09C061E079
:1009B00080530E94F6018091BB039091BC0380623A
:1009C0009093BC038093BB030E94990B2AC1818141
:1009D000863409F485C004F5813409F45EC04CF412
:1009E000803309F44EC0833309F028C18091FB03A2
:1009F0009EC0833409F45DC0853409F01FC1809125
:100A0000BC038F938091BB038F938091D6031F9279
:100A10008F935F924F925BC0803509F49DC04CF478
:100A2000873409F471C0883409F008C180910C043E
:100A30007EC0853509F4AFC0863509F4D8C083354A
:100A400009F0FCC04091EB035091EC036091ED0381
:100A50007091EE038091F3039091F403A091F5035C
:100A6000B091F603840F951FA61FB71FBF93AF93D6
:100A70009F938F938091C9031F928F938BE791E08F
:100A80007FC08091880390918903029721F0809123
:100A9000BE0381704CC082E04AC0809109048F93EC
:100AA000809108048F9380910B048F9380910A04A6
:100AB0000BC08091BB0380FD02C080E101C080E5D6
:100AC0001F928F931F9286E08F93DF92CF92809137
:100AD00057038F93809156038F930E94781B7FC09A
:100AE0008091BA038F5F1F928F938091B5038F5FC0
:100AF0001F928F9380919B038F5F1F928F9321E6AC
:100B000031E03F932F933EC07F927F927F927F92FE
:100B1000809107048F93809106048F938091050440
:100B20008F93809104048F933F922F9250C01F9215
:100B30008F93FF92EF92809157038F93809156038A
:100B40008F930E94781B109358030F900F900F9073
:100B50000F900F900F9065C080917B038F938091D1
:100B60007A038F93809177038F93809176038F938D
:100B7000809179038F93809178038F9382E791E03E
:100B80009F938F93809157038F93809156038F93F8
:100B90000E94781B24C0809118048F9380911704C1
:100BA0008F93809116048F93809115048F93809179
:100BB0001C048F9380911B048F9380911A048F9350
:100BC000809119048F9382E891E09F938F93809195
:100BD00057038F93809156038F930E94781B109335
:100BE00058030FB6F894DEBF0FBECDBF1AC06EE833
:100BF00070E080915603909157030E94C11A6FE4F0
:100C000071E080915603909157030E946D1B65E936
:100C100070E080915603909157030E94B61A10938A
:100C200058031B821A8237CD8FEF9FEF9B838A83F5
:100C300032CDEFEFFFEFFB83EA832DCD2FEF3FEFB8
:100C40003B832A8328CD8F7B8093A10280818033D0
:100C500039F51B821A8281E0EA81FB81EF2B09F0D2
:100C600080E00E94AA001CCD80915B0390915C0300
:100C70000E94C60A6623E1F06093FB03262F30E052
:100C8000A4E8B3E00E943F1B6093FC037093FD0354
:100C90008093FE039093FF038091A10286FDC1CF54
:100CA00081E00E94AD0CBDCF8F7E8093BD03B9CF94
:100CB0001092FC031092FD031092FE031092FF03AA
:100CC0001092FB03E9CF41E09981933009F040E0B5
:100CD00061E00E948301C7CC80915B0390915C032B
:100CE0000E94C60A662399F060930C04A62FB0E018
:100CF00020E83EEE46E350E00E94551B60930D0451
:100D000070930E0480930F0490931004C5CF10923B
:100D10000D0410920E0410920F0410921004109201
:100D20000C04BACF8A819B810F900F900F90DF91B6
:100D3000CF911F910F91FF90EF90DF90CF90BF90D8
:100D4000AF909F908F907F906F905F904F903F906B
:100D50002F9008958091BD0382608093BD0382E04F
:100D60000E94AD0C81E00E949A0A0E9422020E9419
:100D7000920E80918803909189030297B1F360E00D
:100D800070E080E090E00E948F0D8091BE0380FDB6
:100D9000ECCF1092C9038091BD038D7F8093BD037A
:100DA00008950895CF92DF92EF92FF920F931F93D1
:100DB000CF93DF936C017A018B01C0E0D0E0CE15B8
:100DC000DF0581F0D8016D918D01D601ED91FC9187
:100DD0000190F081E02DC6010995892B11F0219633
:100DE000EECF7E01C701DF91CF911F910F91FF9050
:100DF000EF90DF90CF900895FC01538D448D252F07
:100E000030E0842F90E0821B930B541710F0CF96A4
:100E1000089501970895FC01918D828D981761F0D6
:100E2000828DDF01A80FB11D5D968C91928D9F5F21
:100E30009F73928F90E008958FEF9FEF0895FC01CC
:100E4000918D828D981731F0828DE80FF11D858D7F
:100E500090E008958FEF9FEF0895FC01918D228D12
:100E6000892F90E0805C9F4F821B91098F73992797
:100E7000089587EB92E00E942D0721E0892B09F469
:100E800020E0822F0895FC01848DDF01A80FB11DA1
:100E9000A35ABF4F2C91848D90E001968F739927B0
:100EA000848FA689B7892C93A089B1898C9183708E
:100EB00080648C93938D848D981306C00288F38987
:100EC000E02D80818F7D80830895EF92FF920F93B4
:100ED0001F93CF93DF93EC0181E0888F9B8D8C8DE6
:100EE000981305C0E889F989808185FD26C0F62E12
:100EF0000B8D10E00F5F1F4F0F731127E02E8C8DAD
:100F0000E8120CC00FB607FCFACFE889F989808196
:100F100085FFF5CFCE010E944307F1CF8B8DFE01F7
:100F2000E80FF11DE35AFF4FF0829FB7F8940B8F43
:100F3000EA89FB89808180620AC09FB7F894EE89B4
:100F4000FF896083E889F989808183708064808368
:100F50009FBF81E090E0DF91CF911F910F91FF90B3
:100F6000EF900895CF93DF93EC01888D8823C9F02B
:100F7000EA89FB89808185FD05C0A889B9898C91A2
:100F800086FD0FC00FB607FCF5CF808185FFF2CF3D
:100F9000A889B9898C9185FFEDCFCE010E944307C6
:100FA000E7CFDF91CF91089580E090E0892B29F081
:100FB0000E94390781110C940000089585ED8093FB
:100FC000BC008091BC0084FDFCCF10925B020895B0
:100FD000613298F420915B02243089F46093F0012F
:100FE000282FA0EDB1E0FC018E2F821B861718F48C
:100FF00081918D93F9CF80E0089581E0089582E09A
:1010000008950895FC01128EA281B3811C9214826E
:1010100008950C94020887EB92E00C94650787EB27
:1010200092E00C940B0787EB92E00C942D07089547
:10103000E091140280911302E81730F4F0E0EB5EC7
:10104000FD4F808190E008958FEF9FEF089590917C
:10105000140280911302981750F4E92FF0E0EB5E30
:10106000FD4F208130E09F5F9093140202C02FEF6C
:101070003FEFC90108958091130290E0209114027E
:10108000821B91090895CF92DF92EF92FF920F9306
:101090001F93CF93DF937C01CB018A0120917E02C5
:1010A000222389F0EB016B01C40ED51ECC15DD05A2
:1010B00069F06991D701ED91FC910190F081E02DEB
:1010C000C7010995F3CF642F0E94E807C801DF919B
:1010D000CF911F910F91FF90EF90DF90CF900895E7
:1010E000CF93DF931F92CDB7DEB7698320917E0245
:1010F0002223D1F020917C02203240F021E030E028
:10110000FC013383228380E090E015C080917D0252
:10111000E82FF0E0E45AFD4F998190838F5F809330
:101120007D0280937C0205C061E0CE0101960E94A1
:10113000E80781E090E00F90DF91CF91089580E083
:1011400090E008950E94681B6115710561F0FB0134
:1011500001900020E9F73197AF01461B570B87EB51
:1011600092E00C94D20680E090E0089580918F0385
:10117000882321F081E080938E0308958091BD0340
:1011800080688093BD030E94EF0B80E090E00E9496
:10119000200C81E080938D0308951F920F920FB66B
:1011A0000F9211242F933F934F935F936F937F93ED
:1011B0008F939F93AF93BF93EF93FF93E0910201BF
:1011C000F09103010995FF91EF91BF91AF919F912C
:1011D0008F917F916F915F914F913F912F910F90E0
:1011E0000FBE0F901F9018951F920F920FB60F927F
:1011F00011242F933F934F935F936F937F938F931C
:101200009F93AF93BF93EF93FF93E0910001F09111
:1012100001010995FF91EF91BF91AF919F918F913E
:101220007F916F915F914F913F912F910F900FBEE2
:101230000F901F9018951F920F920FB60F921124C6
:101240002F933F934F935F936F937F938F939F93CE
:10125000AF93BF93EF93FF9387EB92E00E94430716
:10126000FF91EF91BF91AF919F918F917F916F917E
:101270005F914F913F912F910F900FBE0F901F9054
:1012800018951F920F920FB60F9211242F938F93E0
:101290009F93EF93FF93E091C702F091C802808182
:1012A000E091CD02F091CE0282FD12C0908180913A
:1012B000D0028F5F8F732091D102821751F0E0919D
:1012C000D002F0E0E954FD4F958F8093D00201C029
:1012D0008081FF91EF919F918F912F910F900FBE81
:1012E0000F901F9018951F920F920FB60F92112416
:1012F0002F933F934F935F936F937F938F939F931E
:10130000AF93BF93EF93FF938091B900887F8036AE
:1013100009F49CC068F5883209F45BC090F4803110
:1013200009F454C038F4882309F4EFC0883009F474
:101330004DC0EFC0883109F44CC0803209F45DC063
:10134000E8C0803409F468C048F4803309F455C01B
:10135000883309F0DEC080935902D1C0803509F48A
:101360004FC0883509F45DC0883409F0D2C0CFC0C1
:10137000883909F4C0C0A8F4883709F467C038F484
:10138000883609F463C0803709F460C0C2C0883869
:1013900009F4B1C0803909F45FC0803809F0B9C0E0
:1013A0005BC0803B09F481C038F4803A09F466C020
:1013B000883A09F47AC0ADC0803C09F4A0C0883CEA
:1013C00009F49DC0883B09F483C0A3C08091360214
:1013D00010C09091580280915702981770F5E091D3
:1013E000580281E08E0F80935802F0E0E95CFD4FD7
:1013F00080818093BB0085EC7FC08093590287C0B9
:10140000E091580281E08E0F809358028091BB00DA
:10141000F0E0E95CFD4F8083909158028091570283
:1014200067C0E091580281E08E0F8093580280914E
:10143000BB00F0E0E95CFD4F808380915A0281118E
:1014400066C081E08093350284EA5AC083E08093CD
:101450005B0210921202CFCF80911202803208F00C
:101460004AC0E091120281E08E0F809312028091B7
:10147000BB00F0E0EE50FE4F8083BDCF80911202A2
:10148000803230F4E0911202F0E0EE50FE4F108214
:101490000E94DE076091120270E082EF91E0E0E0CE
:1014A000F0E00995109212022AC084E080935B025A
:1014B0001092F1011092F001E0E0F0E009958091C6
:1014C000F001811105C081E08093F0011092D001FC
:1014D000E091F10181E08E0F8093F101F0E0E053A3
:1014E000FE4F80818093BB009091F1018091F001CB
:1014F000981708F480CF85E88093BC000AC085EC7B
:101500008093BC0010925B0204C0109259020E94AA
:10151000DE07FF91EF91BF91AF919F918F917F91E6
:101520006F915F914F913F912F910F900FBE0F9050
:101530001F901895CF93C091C903882321F0809103
:10154000CF018C1709F11F92CF931F9284E28F93E2
:101550008AE891E09F938F938FE792E09F938F9318
:101560000E94781B0E94F40C6FE772E084E593E020
:101570000E94A408C093CF018DB79EB708960FB6FE
:10158000F8949EBF0FBE8DBFCF9108950F931F9308
:10159000CF93DF93EC0160E070E0CB01E991EE23A3
:1015A000A9F0AAE0B0E09B01AC010E94551B4E2FB0
:1015B000EE0F550B9A01205331098901330F220B8D
:1015C000330B600F711F821F931FE8CFDF91CF9104
:1015D0001F910F910895FC0140E050E090E02191AF
:1015E0002223B9F04130510511F49295907F80ED9E
:1015F000820F8A3010F4980F0CC08FEB820F863068
:1016000010F4275305C08FE9820F863048F4275520
:10161000920F4F5F5F4F4230510509F7892F0895B0
:1016200080E00895CF92DF92EF92FF926B017C01F0
:10163000A89584E0C816D104E104F10460F063E0E9
:1016400070E080E090E00E943D0183E0C81AD1087C
:10165000E108F108EDCFC701B601FF90EF90DF90F0
:10166000CF900C943D01DC01ED91FC91119791819B
:1016700012968C91892B81830895FC01808187705B
:10168000806480937C0080917A00806480937A00EB
:1016900080917A0086FDFCCF8091780020917900BE
:1016A00090E0922B0895CF92DF92EF92FF920F93EA
:1016B0001F930E9477010091CB011091CC012091E2
:1016C000CD013091CE016B017C01C01AD10AE20A32
:1016D000F30A6091C7017091C8018091C90190918E
:1016E000CA0148EEC41643E0D406E104F104D0F088
:1016F000DC01CB010196A11DB11D8093C701909320
:10170000C801A093C901B093CA0108511C4F2F4FC3
:101710003F4F0093CB011093CC012093CD01309328
:10172000CE01C7CF1F910F91FF90EF90DF90CF9028
:101730000895BC0182E090E00C94F21ADC01ED9176
:10174000FC91119712968C919281662311F0892B4E
:1017500002C08095892382830895DC01ED91FC917C
:101760001197208112968C91922F982381E009F491
:1017700080E0089580911D0480FF30C08E7F8093AB
:101780001D046091190470911A0480911B049091BA
:101790001C04611571058105910501F120E13EE010
:1017A00040E050E00E94171B8091150490911604B0
:1017B000A0911704B0911804BA01A901480F591F4C
:1017C0006A1F7B1F409315045093160460931704FF
:1017D000709318048DE090E00C94EA1A089560E08C
:1017E0008EE993E00E949E0B60E081EA93E00E9404
:1017F0009E0B60E084EA93E00E949E0BE8E8F3E031
:1018000085A98F7B85AB0E94530B6093E703709390
:10181000E8038093E9039093EA030E9477016093C1
:10182000DB037093DC038093DD039093DE0310925F
:1018300004041092050410920604109207040895FF
:101840002FB7F894009739F440E45FE150938B0090
:1018500040938A0004C010928B0010928A009093EB
:101860008903809388032FBF0895A89510928F0352
:1018700010928E038AE893E00E94AD0B882321F03A
:1018800081E080938D03089510928D030895EF9267
:10189000FF920F931F93CF93DF93C4E1D0E0A895FD
:1018A0008AE893E00E94AD0B882351F062E370E078
:1018B00080E090E00E943D01219789F782E046C0D8
:1018C00081E080938F0310928E03CDE3D0E08FE20E
:1018D000E82E82E8F82E03E312E880918E0381114E
:1018E00013C0219789F061E080E993E00E949E0B8C
:1018F000C7010197F1F760E080E993E00E949E0B39
:10190000C8010197F1F7E9CFC8E2D0E0A8958AE8CD
:1019100093E00E94AD0B882351F062E370E080E019
:1019200090E00E943D01219789F783E00FC068EEA7
:1019300073E080E090E00E94120B10928D031092F1
:101940008F0381E090918E03911180E0DF91CF9120
:101950001F910F91FF90EF900895CF92DF92EF9239
:10196000FF920F931F93CF93C82F8091A10286FD02
:1019700033C00E9477013091C9032091CA03321706
:1019800041F168517C4F8F4F9F4F2091BD0321FD46
:10199000C2E00091B3021091B4022091B5023091DF
:1019A000B6026B017C01C01AD10AE20AF30A48EEC2
:1019B000C41643E0D406E104F10410F4C13061F42C
:1019C0006093B3027093B4028093B5029093B60211
:1019D00003C0C111D6CFDDCFCF911F910F91FF90E2
:1019E000EF90DF90CF900895CF93DF93EFE7F2E091
:1019F00080E0EF019191992311F08927FACF1F928E
:101A00008F9384E991E09F938F93DF93CF930E940C
:101A1000781B8DE08B831C820F900F900F900F909E
:101A20000F900F90DF91CF9108958091C9038E3F61
:101A3000B9F080E090E00E94200C8EEF8093C90303
:101A400081E00E94AD0C81E00E949A0A0E94770119
:101A50006093DB037093DC038093DD039093DE03DC
:101A60000895CF938091BB0380FD02C0C1E001C007
:101A7000C2E081E090E0C13011F480E090E00E948B
:101A8000C81A8F3F21F4C13039F080E10AC0863096
:101A900060F0C13031F401C08CE0813138F080E178
:101AA00005C0813518F080E501C086E0CF9108952A
:101AB000CF92DF92EF92FF92CF93DF930E94770154
:101AC0006B017C01D1E0C2E0CC2339F087EA93E0DE
:101AD0000E94AD0B811101C0C0E0DD23E9F08AEA6C
:101AE00093E00E94AD0B8823B1F0D1E00E94770112
:101AF000DC01CB018C199D09AE09BF094497A105F2
:101B0000B10510F38D2F8C2BDF91CF91FF90EF90CB
:101B1000DF90CF900895D0E0C111E8CFF3CFAF921E
:101B2000BF92CF92DF92EF92FF920F931F93CF93CA
:101B3000DF936C017B0184E6A82EB12C0FEF13E03C
:101B4000C0E0D0E08CE993E00E943D0BC817D907B4
:101B500028F08017910718F48C0101C0EC0181E096
:101B6000A81AB10879F780918803909189030297A8
:101B7000C1F08091BE0380FF02C0826001C08D7FF2
:101B80008093BE032091BF033091C0038091BE03B8
:101B9000C217D30718F08E7F846001C081608093E4
:101BA000BE03C114D10431F0F60111830083F701A3
:101BB000D183C083DF91CF911F910F91FF90EF9060
:101BC000DF90CF90BF90AF900895CF93DF9391E0D7
:101BD00090937E0298E190931E0410927D021092E1
:101BE0007C02682F8CE793E00E94700890917C0241
:101BF000913208F040C080915B028111FCCF82E0FD
:101C000080935B0281E080935A028FEF80935902A8
:101C10001092580290935702ACE5B2E0E7E3F2E08D
:101C200080E0981721F02D9121938F5FFACF1092C9
:101C300036028091360280638093360280913502AD
:101C4000813041F410923502809136028093BB00BE
:101C500085EC01C085EE8093BC0080915B028230F0
:101C6000E1F3809159028F3F31F080915902803227
:101C700011F08091590210927D0210927C02109214
:101C80007E0280915B028111FCCF81E080935B0238
:101C900080935A029FEF90935902109258028093BA
:101CA0005702809336028091360280638093360219
:101CB00080913502813041F41092350280913602D4
:101CC0008093BB0085EC01C085EE8093BC008091C1
:101CD0005B028130E1F380915802823018F49091D8
:101CE000580201C092E0A7E3B2E0E5E1F2E080E053
:101CF000891721F02D9121938F5FFACF1092140252
:101D0000809313028CE793E00E942708D82FCC27FA
:101D10008CE793E00E9427089E01282BC901DF91E0
:101D2000CF910895CF92DF92EF92FF920E947701B8
:101D30006B017C018091710390917203A0917303F8
:101D4000B0917403A7019601281B390B4A0B5B0B5A
:101D5000DA01C901883E9340A105B10538F18091AF
:101D600075038823A9F085E00E94E50D9C013F7171
:101D700094FD306F4AE0429FC001439F900D1124B3
:101D800097FD0F9624E0959587952A95E1F702C077
:101D900080E096EF9093770380937603C09271036F
:101DA000D0927203E0927303F0927403FF90EF906D
:101DB000DF90CF9008951F920F920FB60F921124CB
:101DC0002F933F938F939F93AF93BF938091BF01C6
:101DD0009091C001A091C101B091C20130911F0446
:101DE00023E0230F2D3720F40196A11DB11D05C05E
:101DF00026E8230F0296A11DB11D20931F04809396
:101E0000BF019093C001A093C101B093C201809122
:101E1000C3019091C401A091C501B091C601019682
:101E2000A11DB11D8093C3019093C401A093C5016E
:101E3000B093C601BF91AF919F918F913F912F9128
:101E40000F900FBE0F901F901895CF93DF93CDB7D3
:101E5000DEB760970FB6F894DEBF0FBECDBF7894A3
:101E600084B5826084BD84B5816084BD85B582609F
:101E700085BD85B5816085BD80916E008160809350
:101E80006E001092810080918100826080938100B9
:101E900080918100816080938100809180008160C9
:101EA000809380008091B10084608093B100809124
:101EB000B00081608093B00080917A00846080934C
:101EC0007A0080917A00826080937A0080917A0013
:101ED000816080937A0080917A00806880937A0094
:101EE0001092C1000FB6F894A895809160008861A7
:101EF00080936000109260000FBE60E971E080E0A6
:101F000090E00E943D01E091C702F091C802A2E07A
:101F1000CA2EC082E091C302F091C4021082E09107
:101F2000C502F091C602B0E1DB2ED0821092CF0242
:101F3000E091CB02F091CC0286E08083E091C9026F
:101F4000F091CA02808180618083E091C902F091A2
:101F5000CA02808188608083E091C902F091CA0240
:101F6000808180688083E091C902F091CA028081FB
:101F70008F7D8083109214021092130210927D02C2
:101F800010927C0210925B0211E010935A021092A0
:101F9000350288B1806388B98091B9008E7F8093C3
:101FA000B9008091B9008D7F8093B9008CE0809357
:101FB000B80085E48093BC00A8951093A10284E545
:101FC00093E00E9402088AE991E09093570380937E
:101FD00056031092C9031092CA0380E00E949A0A25
:101FE00082E090E00E94D61A7C0103E2A02EB12C80
:101FF000B0929F03A0929E031093A0038EE993E0FA
:102000000E94330B09E210E01093A2030093A10396
:1020100080E88093A30381EA93E00E94330BB0929F
:10202000A503A092A403C092A60384EA93E00E94B1
:10203000330B1093A8030093A70388E08093A903B0
:102040005B9A53981093AB030093AA03D092AC030E
:102050005C9A549810938B0300938A0384E08093D6
:102060008C03529886EB98E09093010180930001D5
:1020700080916900836080936900E89A10939103CE
:102080000093900380E48093920380E993E00E94A0
:10209000330B0E94350C0E94EF0B1092800080E4FD
:1020A0009FE1909387008093860081E18093810077
:1020B000229A8091800080628093800080E090E08E
:1020C0000E94200C2FEFE216F20629F41092BC03B6
:1020D0001092BB0309C0F092BC03E092BB03E0FC8A
:1020E00003C0FF24F39402C072E0F72E8BE090E06F
:1020F0000E94D61A8C01909309048093080489E009
:1021000090E00E94D61A90930B0480930A040F3F2C
:102110001F4F21F41092090410920804019631F423
:102120008CED90E090930B0480930A0410920004CD
:1021300010920104109202041092030410920404FD
:102140001092050410920604109207041092F703EF
:102150001092F8031092F9031092FA030091BB0356
:102160001091BC03C80191609093BC038093BB03A2
:102170001092BD0384E08093BE03109297031092E7
:1021800098031092990310929A0381E190E00E94C3
:10219000C81A80939B031092B1031092B20310925D
:1021A000B3031092B40382E190E00E94C81A8093B6
:1021B000B5031092B6031092B7031092B8031092B1
:1021C000B90383E190E00E94C81A8093BA03109289
:1021D000AD031092AE031092AF031092B003C8018A
:1021E0008E719670892BF1F101FF06C06CED75E0E0
:1021F00080E090E00E94120B8091BB0382FF06C03A
:102200006CED75E080E090E00E94120B8091BB03C2
:1022100083FF06C06CED75E080E090E00E94120B39
:102220008091BB0384FF06C06CED75E080E090E018
:102230000E94120B8091BB039091BC0391FF06C0DA
:102240006CED75E080E090E00E94120B8091BB0382
:102250009091BC0392FF06C06CED75E080E090E0C9
:102260000E94120BA89580E090E00E94200C8091C3
:10227000BB0385FD9AC066E970E080E090E00E94B3
:102280003D018CE993E00E943D0B8C0182E090E0DF
:102290000E94200C053813400CF480C00E94580D99
:1022A000182F61E08EE993E00E949E0B61E084EAC2
:1022B00093E00E949E0B6AEF70E080E090E00E9445
:1022C0003D010E94580DE82E60E08EE993E00E94E7
:1022D0009E0B60E084EA93E00E949E0B6AEF70E040
:1022E00080E090E00E943D0161E081EA93E00E947D
:1022F0009E0B6AEF70E080E090E00E943D010E943A
:10230000580D082F60E081EA93E00E949E0B6AEF6F
:1023100070E080E090E00E943D018091BB031330AB
:10232000D1F562E06E1520F091E0E91630F01FC0A3
:1023300063E0662EE61461F01CC7033011F412E06E
:1023400001C010E084FD43C0033009F010C73FC056
:1023500083FD03C0033009F40EC7011102C012E06F
:1023600001C010E00150023090F50C94291A84FD50
:1023700006C0033011F40C94291A14E005C0033090
:1023800011F40C94291A10E077247394E71019C003
:102390000230C9F41BC084FFEAC6EBC68091BD03BE
:1023A00081608093BD0311E001C010E08091BB0308
:1023B00084FD0DC00E94580D8370833009F0D7C68C
:1023C00006C0013019F0133060F401C012E08091B2
:1023D000BB039091BC0391FD04C00E94470C811186
:1023E00015E080E090E00E94200CA8952091BB03AE
:1023F0003091BC0325FD05C08FEF810F823008F4BA
:10240000F12E23FD03C0133009F4B7C680E024FD8C
:1024100003C0143009F4B6C631FD03C0153009F409
:10242000B6C6882341F081E00E949A0A0E942202E7
:102430000E94920EFBCF60E08F2D0E94F601109259
:10244000700380E096EF90937703809376039093E8
:1024500079038093780390937B0380937A0386E0DB
:102460000E94E50D8435910509F095C687E00E942C
:10247000E50D8115944009F08EC681E080937503C7
:102480009FE088E10FB6F894A895809360000FBE96
:1024900090936000A8954FEF5FEF5A8349830E94A5
:1024A00077016B017C018091C9038F3F09F47CC6E1
:1024B0008E3F09F04DC0BE016F5F7F4FCE01039686
:1024C0000E948F0D9091BD0396FF2DC02091C103F6
:1024D0003091C20389819A818217930708F5809110
:1024E000000490910104A0910204B0910304893B7F
:1024F0009B40A105B105A0F08091DB039091DC0326
:10250000A091DD03B091DE03C81AD90AEA0AFB0ADA
:1025100068EBC6166BE0D606E104F10408F442C687
:102520000E94EF0B3FC68091BE0392FF09C080FD61
:1025300007C09B7F9093BD031092C90310E001C0B8
:1025400011E0837019F0833009F028C611112AC6F2
:102550001091C9030E94580DA82E8091BD0386FFDB
:102560002BC08091D7039091D803A091D903B0914B
:10257000DA0336014701681A790A8A0A9B0A29EEAA
:10258000621623E072068104910408F4C7C08091AA
:10259000BB0383FD05C08A2D8370833009F407C611
:1025A00001E0B12C8091BD0380FFBAC08091C903C6
:1025B000833009F0B5C019C6173009F047C08981CA
:1025C0009A81019631F460E070E080E090E00E9432
:1025D0008F0D8091BE0380FD03C01092C903BFC55B
:1025E0008091B1039091B203A091B303B091B40371
:1025F00086309105A105B10510F54091AD035091CC
:10260000AE036091AF037091B00336014701641AC5
:10261000750A860A970A21EE621623E9720624E0FB
:102620008206910460F00196A11DB11D8093B10353
:102630009093B203A093B303B093B4036FC087E049
:102640008093C90347E0B42E00E06AC08091BB03C9
:1026500084FD64C08A2D8370833009F457C018301C
:10266000A1F08091B6039091B703A091B803B09107
:10267000B903892B8A2B8B2B41F4C092B603D092DD
:10268000B703E092B803F092B9038091DB03909115
:10269000DC03A091DD03B091DE0336014701681A27
:1026A000790A8A0A9B0A29EE621623E072068104DF
:1026B0009104A8F08091B6039091B703A091B8035C
:1026C000B091B90336014701681A790A8A0A9B0A50
:1026D00029EE621623E072068104910418F4183082
:1026E000E9F40DC0183059F06091BA036F5F6E3F86
:1026F00030F46093BA0383E190E00E94DC1A88E032
:102700008093C90300E038E0B32E0AC01092B603EC
:102710001092B7031092B8031092B90301E0B12CE4
:1027200080918D03882309F46EC086E08093C903ED
:102730001630F9F060919B036F5F6E3F30F4609349
:102740009B0381E190E00E94DC1A109297031092A3
:1027500098031092990310929A03C0929303D09217
:102760009403E0929503F092960300E026E0B22EE7
:102770004AC060E070E080E090E00E948F0D8091A0
:10278000BE0380FD05C01092C9030E94350CE7C44A
:102790008091930390919403A0919503B091960337
:1027A00036014701681A790A8A0A9B0A20EE6216E6
:1027B00023E9720624E08206910410F180919703C8
:1027C00090919803A0919903B0919A030196A11D4D
:1027D000B11D8093970390939803A0939903B093AE
:1027E0009A030797A105B10508F031C50E94350C81
:1027F00010929303109294031092950310929603F3
:1028000096E0B92E00E08091BB039091BC0392FD4D
:102810001BC080917A0390917B038E3E924074F4AA
:102820008091760390917703863C92403CF48091AE
:10283000780390917903863C924034F08AE080934B
:10284000C90300E08AE0B82EA090CD03002309F46C
:102850006FC08CEF810F883038F480E090E00E94E8
:10286000200C1092C90310E0BE016F5F7F4FCE01B4
:1028700003960E948F0D2091BB0321FD12C0809111
:10288000880390918903019761F44091C7035091A7
:10289000C8038B819C818417950718F085E095E02B
:1028A00018C089819A814091BF035091C003841759
:1028B000950708F0BFC44091C1035091C20384172B
:1028C000950708F49EC482E0B2E0BB2E1B1589F187
:1028D0009B2DB090CB03B91651F0C092CE03D0928D
:1028E000CF03E092D003F092D103B92E22C04091E1
:1028F000CE035091CF036091D0037091D103260194
:102900003701441A550A660A770A913029F04AEFCE
:1029100050E060E070E004C049E150E060E070E049
:10292000441655066606770620F0B092C90301C02A
:1029300080E0A81621F19091CC03891749F0C0924C
:10294000D203D092D303E092D403F092D50317C000
:102950004091D2035091D3036091D4037091D50379
:1029600036014701641A750A860A970AB401A30161
:102970004A3F51056105710510F08093CD038093A6
:10298000CC03B092CB039091C903911731F02FEF94
:10299000290F233010F48093CD03913051F48091AE
:1029A000BD0386FD0E94EF0B80E090E00E94200CAA
:1029B00090C0923039F48091BD0386FF8AC00E9496
:1029C000EF0B87C0933009F084C09091D6038091BB
:1029D000BD03911128C086FF7CC08090DF039090DA
:1029E000E003A090E103B090E2030E947701681534
:1029F00079058A059B0558F480949094A094B0942E
:102A0000DC01CB01880D991DAA1DBB1D06C0DC0190
:102A1000CB0188199909AA09BB0985369941A105F5
:102A2000B10568F656C086FD54C061E08EE993E0BA
:102A30000E949E0B61E081EA93E00E949E0B61E0A0
:102A400084EA93E00E949E0B8091BD038064809392
:102A5000BD038091BE0382FF0CC01092F30310925D
:102A6000F4031092F5031092F6038B7F8093BE035C
:102A70001CC04091F3035091F4036091F5037091F1
:102A8000F6038091EB039091EC03A091ED03B091DC
:102A9000EE03840F951FA61FB71F8093F303909337
:102AA000F403A093F503B093F6030E94530B6093D5
:102AB000E3037093E4038093E5039093E6030E949D
:102AC00077016093D7037093D8038093D9039093D1
:102AD000DA038091C903181709F488C08130D1F452
:102AE00010920D0410920E0410920F041092100414
:102AF00010920C041092FC031092FD031092FE033E
:102B00001092FF031092FB0380917003877F8093E4
:102B1000700365C0823041F48091D603882331F17F
:102B200090E00E940C015BC08330B9F48091D60321
:102B3000811105C080E090E00E94200C03C090E06D
:102B40000E940C018091BB039091BC0391FD47C092
:102B50000E94470C811174C342C0843019F40E9452
:102B6000EF0B2CC0863039F40E94EF0B80E090E030
:102B70000E94200C34C08A30C1F480E090E00E94B2
:102B8000200C0E947701DC01CB018C199D09AE0954
:102B9000BF0988389341A105B10510F4A895F1CF7C
:102BA0000E94EF0B82E090E00BC0853071F40E9430
:102BB000EF0B8091D60390E00E940C0180E090E042
:102BC0000E94200C0E94AA060AC0873069F2883051
:102BD00039F380E090E00E94200C0E94EF0B80917E
:102BE000C903181719F081E00E949A0A011116C052
:102BF0001330A1F48091D7039091D803A091D90309
:102C0000B091DA03C81AD90AEA0AFB0A41EDC416E0
:102C100047E0D406E104F10408F419C31093CA0391
:102C20008091C903833039F480910A0490910B0498
:102C30001816190624F08091BD0384FF3FC1A895A2
:102C40000E9477016D877E878F87988B212C312C8E
:102C500044244A94542C320119861A861B861C86F9
:102C600000E010E0C12CD12C76010E9477014B01CD
:102C70005C01DC01CB012D853E854F855889821B87
:102C8000930BA40BB50B8397A105B10508F0A8C061
:102C90008DE993E00E943D0B9C0140E050E02D83C4
:102CA0003E834F8358873FEF4316530663067306F0
:102CB00051F191E041E0441642E054066104710490
:102CC0000CF490E081E02D813E814F8158852130C8
:102CD0003240410551050CF480E09817A1F0D50170
:102CE000C40129853A854B855C85821B930BA40B17
:102CF000B50B0697A105B10530F00F5F1F4F898610
:102D00009A86AB86BC860130110528F44D805E8022
:102D10006F807884AACF0330110598F00330110535
:102D2000A9F7910140E050E0C701B6010E94171BCE
:102D3000DA01C90189019A0140E050E060E070E4E5
:102D40001AC06D817E818F819885725081099109A9
:102D50009B01AC010E94071BC60ED71EE81EF91E80
:102D60003FEF231A330AD2CFE2E076956795579565
:102D70004795EA95D1F784179507A607B707A0F3FB
:102D800080E090E0DC011EC06A017B01C80ED91E04
:102D9000EA1EFB1EB695A795979587950C151D0500
:102DA0002E053F0540F00C191D092E093F09840F1F
:102DB000951FA61FB71FE2E0769567955795479533
:102DC000EA95D1F74115510561057105E9F6809342
:102DD000000490930104A0930204B093030409C07B
:102DE0001092000410920104109202041092030445
:102DF000A8950091000410910104209102043091E3
:102E000003046091BE01611108C01092BA011092D2
:102E1000BB011092BC011092BD018091BA0190914A
:102E2000BB01A091BC01B091BD01080F191F2A1F61
:102E30003B1F0093BA011093BB012093BC01309358
:102E4000BD0181E0860F8093BE018032B9F51092FA
:102E5000BE01A0910A04B0910B04A901980165E09C
:102E600056954795379527956A95D1F70E94601B2F
:102E70000091080410910904012E000C220B330B61
:102E8000DC01CB01801B910BA20BB30BB7FD09C07A
:102E90008093040490930504A0930604B093070460
:102EA00008C01092040410920504109206041092B7
:102EB00007048091A10280688093A1028091C903D8
:102EC000833009F061C0A091D603B0E0159628EEDA
:102ED00033E00E944E1B00910404109105042091E0
:102EE00006043091070406171707280739070CF462
:102EF0004BC08091F7039091F803A091F903B09132
:102F0000FA03892B8A2B8B2BA1F10E947701009168
:102F1000F7031091F8032091F9033091FA03DC01D3
:102F2000CB01801B910BA20BB30B88389341A105F9
:102F3000B10590F15BE05093C90380E090E00E94FE
:102F4000200C0E9477016B017C010E947701DC015B
:102F5000CB018C199D09AE09BF09883E9340A1059C
:102F6000B10510F4A895F1CF0E94EF0B0E94AA06BC
:102F70000BC00E9477016093F7037093F80380936E
:102F8000F9039093FA0308C01092F7031092F80324
:102F90001092F9031092FA038091C903833009F06B
:102FA000DEC08091EB039091EC03A091ED03B09112
:102FB000EE038093EF039093F003A093F103B0939B
:102FC000F2030E94530B0091E3031091E40320915C
:102FD000E5033091E603DC01CB01801B910BA20BD2
:102FE000B30B8093EB039093EC03A093ED03B093AA
:102FF000EE032091BB033091BC0332FD55C000911C
:10300000EF031091F0032091F1033091F203801748
:103010009107A207B30709F447C00E94310D9091B0
:10302000700320917A0330917B0390FD16C02A38FB
:1030300042E034070CF00EC14091760350917703C3
:103040004A3852400CF006C1409178035091790300
:103050004A3852400CF0FEC000C1293542E0340726
:103060000CF0FBC040917603509177034D365240EF
:103070000CF0F3C040917803509179034D365240E3
:103080000CF0EBC09E7F9093700341E060E00E94E3
:1030900083018091880390918903019729F08091A1
:1030A000D60390E00E940C0180910D0490910E04D3
:1030B000A0910F04B09110040097A105B10571F023
:1030C0004091190450911A0460911B0470911C04E2
:1030D000481759076A077B0708F0EEC04091FC03C8
:1030E0005091FD036091FE037091FF03411551055E
:1030F00061057105A1F10091EB031091EC032091A2
:10310000ED033091EE038091F3039091F403A091CD
:10311000F503B091F603800F911FA21FB31F841710
:103120009507A607B707D8F01092FC031092FD038D
:103130001092FE031092FF031092FB0310920D04F5
:1031400010920E0410920F041092100410920C04AE
:103150008091BD0384608093BD030E94150D109182
:10316000BE03117080911D0481FDDEC0C1C014E05A
:1031700038C910E02CC913E034C987E08093C90333
:1031800081E045C988E08093C90381E045C989E0B1
:103190008093C90348C91092750372C981E00E94E7
:1031A000AD0CD4C98091C9038093CA03D8CF87E0FE
:1031B0008093C9030E94EF0B173059F06091B5035B
:1031C0006F5F6E3F30F46093B50382E190E00E9440
:1031D000DC1AC092AD03D092AE03E092AF03F0923E
:1031E000B00300E057E0B52EDDC9A11004C061E0D6
:1031F00082E00E94F6018091BD038E7F8093BD0323
:103200008FCA4091C3035091C4038417950758F4A3
:103210004091C5035091C6034817590740F484E014
:1032200022FF0CC001C083E0A3E0BA2E4FCB80E0A8
:10323000B12C4CCB81E0BB24B39448CB94E049CB78
:1032400059E05093C90380E090E00E94200C0E9456
:10325000AA0685CF8695996016CF91FD16C02C3BA6
:1032600032407CF42091760330917703283A324043
:1032700044F42091780330917903283A32400CF4D9
:1032800013CF869586959A60FECE2B3832400CF08F
:103290000BCF20917603309177032B3832400CF01E
:1032A00003CF20917803309179032B3832400CF012
:1032B000FBCE86959D7FE7CE10920D0410920E04F2
:1032C00010920F041092100410920C041092FC0340
:1032D0001092FD031092FE031092FF031092FB0365
:1032E0008091BD0384608093BD030E94150DF6CECE
:1032F0001123F1F00E94BA0B1092190410921A04D3
:1033000010921B0410921C040E9477016093110418
:1033100070931204809313049093140480911D04FD
:10332000816080931D0404C0111102C00E94BA0B79
:1033300080911D0480FF72C09091BD0396FF87C0ED
:1033400082FD0BC00E9477016093110470931204F8
:1033500080931304909314045CC00E9477014B0186
:103360005C018091110490911204A0911304B0911A
:10337000140475016401C81AD90AEA0AFB0A5BEF52
:10338000C516D104E104F10408F443C060910404BB
:103390007091050480910604909107042091BB036D
:1033A00020FF4FC030EF432E512C612C712C28EEA2
:1033B00033E040E050E00E94171BC701B6010E94B5
:1033C000071B9B01AC01C301B2010E94071B28EE41
:1033D00033E040E050E00E94171B80911904909167
:1033E0001A04A0911B04B0911C04820F931FA41F08
:1033F000B51F8093190490931A04A0931B04B093F3
:103400001C048092110490921204A0921304B092B2
:10341000140480911D04846080931D0480911D0418
:10342000112311F0826001C08D7F80931D0480E024
:103430000E94AD0C0E9422020E94920E0E94D407AC
:1034400029C828E7422E512C612C712CB0CF8B7FDC
:10345000E3CF11E00C94E7111092BA021092B90276
:1034600088EE93E0A0E0B0E08093BB029093BC02B2
:10347000A093BD02B093BE0222E131E03093B802C6
:103480002093B70225EC30E03093C4022093C302AE
:1034900024EC30E03093C6022093C50220EC30E0EB
:1034A0003093C8022093C70221EC30E03093CA0267
:1034B0002093C90222EC30E03093CC022093CB025F
:1034C00026EC30E03093CE022093CD021092D00251
:1034D0001092D1021092D2021092D30210926F0376
:1034E00024E231E030935503209354031092750386
:1034F00010927F0310927E03809380039093810348
:10350000A0938203B093830386E391E090937D03BD
:1035100080937C0381E080939C0310929D03109222
:103520001D041092190410921A0410921B04109298
:103530001C048DE090E00E94D01A6F3F7F4F8F4FA8
:103540009F4F39F440E050E0BA018DE090E00E94D6
:10355000EA1A8DE090E00E94D01A609315047093EF
:10356000160480931704909318040895FB01DC015E
:103570000D900020E9F7119705900D920020E1F7DA
:103580000895FB01DC0105900D920020E1F70895FC
:10359000F999FECF92BD81BDF89A992780B508951B
:1035A000A6E1B0E044E050E00C94F91AA8E1B0E0E4
:1035B00042E050E00C94F91A262FF999FECF1FBA79
:1035C00092BD81BD20BD0FB6F894FA9AF99A0FBE4C
:1035D00001960895242F0E94DD1A252F0E94DD1ADE
:1035E0000C94F21A0E94DC1A272F0C94DD1ADC01CD
:1035F000CB01FC01F999FECF06C0F2BDE1BDF89AFE
:10360000319600B40D9241505040B8F70895DB0157
:103610008F939F930E94551BBF91AF91A29F800DE6
:10362000911DA39F900DB29F900D11240895A1E2CA
:103630001A2EAA1BBB1BFD010DC0AA1FBB1FEE1F2C
:10364000FF1FA217B307E407F50720F0A21BB30B77
:10365000E40BF50B661F771F881F991F1A9469F7F3
:1036600060957095809590959B01AC01BD01CF014F
:103670000895EE0FFF1F0590F491E02D0994A29F8D
:10368000B001B39FC001A39F700D811D1124911D36
:10369000B29F700D811D1124911D08950E943F1B42
:1036A000B7FF0895821B930B08950E943F1BA59FAF
:1036B000900DB49F900DA49F800D911D112408952D
:1036C000B7FF0C94551B0E94551B821B930B08954A
:1036D00081E090E0F8940C94621EFB01DC010D90F7
:1036E0000020E9F7119701900D920020E1F708956D
:1036F000AEE0B0E0EEE7FBE10C94391E0D891E89C7
:1037000086E08C831A8309838FEF9FE79E838D83E6
:10371000AE01475E5F4F6F89788DCE0101960E94A2
:103720009A1BEF81F885E00FF11F10822E96E4E0DE
:103730000C94551EABE0B0E0E0EAFBE10C942B1ECC
:103740006C017B018A01FC0117821682838181FF53
:10375000CCC1CE0101963C01F6019381F70193FDA6
:10376000859193FF81917F01882309F4BAC1853245
:1037700039F493FD859193FF81917F01853229F47E
:10378000B60190E00E94911DE7CF912C212C312CA5
:10379000FFE1F315D8F08B3279F038F4803279F00C
:1037A0008332A1F4232D20611DC08D3261F080335E
:1037B00069F4232D216016C0832D8260382EE32DFD
:1037C000E4603E2E2AC0F32DF8601DC037FC2DC0EA
:1037D00020ED280F2A3040F08E32B9F436FC81C13A
:1037E000232D2064322E19C036FE06C08AE0989E32
:1037F000200D1124922E11C0EAE02E9E200D1124DE
:10380000222EF32DF0623F2E08C08C3621F4832D3A
:103810008068382E02C0883641F4F70193FD859107
:1038200093FF81917F018111B3CF982F9F7D955494
:10383000933028F40C5F1F4F9FE399830DC08336AC
:1038400031F0833771F0833509F059C021C0F80198
:10385000808189830E5F1F4F88248394912C5301AC
:1038600013C02801F2E04F0E511CF801A080B18076
:1038700036FE03C0692D70E002C06FEF7FEFC50117
:103880000E94861D4C018201F32DFF773F2E16C04A
:10389000280122E0420E511CF801A080B18036FEC2
:1038A00003C0692D70E002C06FEF7FEFC5010E9479
:1038B0007B1D4C01F32DF0683F2E820133FC1BC0B1
:1038C000822D90E088169906B0F4B60180E290E06F
:1038D0000E94911D2A94F4CFF50137FC859137FEA3
:1038E00081915F01B60190E00E94911D21102A9400
:1038F00021E0821A91088114910471F7E8C084369E
:1039000011F0893641F5F80137FE07C060817181F9
:10391000828193810C5F1F4F08C060817181072EE7
:10392000000C880B990B0E5F1F4FF32DFF763F2E77
:1039300097FF09C090958095709561957F4F8F4F47
:103940009F4FF0683F2E2AE030E0A3010E94CD1D7A
:10395000882E861845C0853731F4232D2F7EB22E50
:103960002AE030E025C0932D997FB92E8F36C1F023
:1039700018F4883579F0B5C0803719F0883721F010
:10398000B0C0E92FE061BE2EB4FE0DC0FB2DF46087
:10399000BF2E09C034FE0AC0292F2660B22E06C0F1
:1039A00028E030E005C020E130E002C020E132E054
:1039B000F801B7FE07C060817181828193810C5F3D
:1039C0001F4F06C06081718180E090E00E5F1F4F45
:1039D000A3010E94CD1D882E8618FB2DFF773F2E58
:1039E00036FE0DC0232D2E7FA22E891458F434FEEE
:1039F0000BC032FC09C0832D8E7EA82E05C0B82CCA
:103A0000A32C03C0B82C01C0B92CA4FE0FC0FE012A
:103A1000E80DF11D8081803321F49A2D997EA92E25
:103A200009C0A2FE06C0B394B39404C08A2D867860
:103A300009F0B394A3FC11C0A0FE06C0B21488F430
:103A4000280C922C9B180EC0B21460F4B60180E2D0
:103A500090E00E94911DB394F7CFB21418F42B1884
:103A600002C0982C212CA4FE10C0B60180E390E087
:103A70000E94911DA2FE17C0A1FC03C088E790E040
:103A800002C088E590E0B6010CC08A2D867859F016
:103A9000A1FE02C08BE201C080E2A7FC8DE2B6016C
:103AA00090E00E94911D891438F4B60180E390E003
:103AB0000E94911D9A94F7CF8A94F301E80DF11DAD
:103AC0008081B60190E00E94911D8110F5CF2220E7
:103AD00009F442CEB60180E290E00E94911D2A9442
:103AE000F6CFF6018681978102C08FEF9FEF2B966C
:103AF000E2E10C94471EFC010590615070400110FA
:103B0000D8F7809590958E0F9F1F0895FC01615006
:103B1000704001900110D8F7809590958E0F9F1FEF
:103B200008950F931F93CF93DF93FB01238121FD12
:103B300003C08FEF9FEF2CC022FF16C04681578134
:103B4000248135814217530744F4A081B1819D013E
:103B50002F5F3F4F318320838C93268137812F5FE6
:103B60003F4F3783268314C08B01EC01FB01008497
:103B7000F185E02D0995892BE1F6D80116968D91F6
:103B80009C911797019617969C938E931697CE014A
:103B9000DF91CF911F910F910895FA01AA27283044
:103BA00051F1203181F1E8946F936E7F6E5F7F4F0A
:103BB0008F4F9F4FAF4FB1E03ED0B4E03CD0670F86
:103BC000781F891F9A1FA11D680F791F8A1F911DD9
:103BD000A11D6A0F711D811D911DA11D20D009F429
:103BE00068943F912AE0269F11243019305D31936B
:103BF000DEF6CF010895462F4770405D4193B3E054
:103C00000FD0C9F7F6CF462F4F70405D4A3318F0FA
:103C1000495D31FD4052419302D0A9F7EACFB4E0AB
:103C2000A6959795879577956795BA95C9F7009763
:103C30006105710508959B01AC010A2E0694579504
:103C4000479537952795BA95C9F7620F731F841F5B
:103C5000951FA01D08952F923F924F925F926F92F1
:103C60007F928F929F92AF92BF92CF92DF92EF920C
:103C7000FF920F931F93CF93DF93CDB7DEB7CA1B8D
:103C8000DB0B0FB6F894DEBF0FBECDBF09942A88B8
:103C9000398848885F846E847D848C849B84AA8460
:103CA000B984C884DF80EE80FD800C811B81AA81ED
:103CB000B981CE0FD11D0FB6F894DEBF0FBECDBFB8
:083CC000ED010895F894FFCF17
:103CC800D106D1066B030C03B20200000401000008
:103CD80000006507D206FC06B2072D070B071F0771
:103CE8000000000013080F08010801080B08A408C9
:103CF800090800000000700843089F0817083B08DF
:103D0800270818084F4B004E4B00256325730020E9
:103D1800002025632530325800256420253034786A
:103D280000257820257820257800256C6420256CCE
:103D38006400256420256420256400256420256C02
:103D48006400256C7520256C750025635354202567
:0A3D5800303278005E25303258004A
:00000001FF
